{
	"lesson-3/FundMe.sol": {
		"FundMe": {
			"abi": [
				{
					"inputs": [
						{
							"internalType": "address",
							"name": "",
							"type": "address"
						}
					],
					"name": "addressToAmountFunded",
					"outputs": [
						{
							"internalType": "uint256",
							"name": "",
							"type": "uint256"
						}
					],
					"stateMutability": "view",
					"type": "function"
				},
				{
					"inputs": [],
					"name": "fund",
					"outputs": [],
					"stateMutability": "payable",
					"type": "function"
				},
				{
					"inputs": [
						{
							"internalType": "uint256",
							"name": "ethAmount",
							"type": "uint256"
						}
					],
					"name": "getConversionRate",
					"outputs": [
						{
							"internalType": "uint256",
							"name": "",
							"type": "uint256"
						}
					],
					"stateMutability": "view",
					"type": "function"
				},
				{
					"inputs": [],
					"name": "getPrice",
					"outputs": [
						{
							"internalType": "uint256",
							"name": "",
							"type": "uint256"
						}
					],
					"stateMutability": "view",
					"type": "function"
				},
				{
					"inputs": [],
					"name": "getVersion",
					"outputs": [
						{
							"internalType": "uint256",
							"name": "",
							"type": "uint256"
						}
					],
					"stateMutability": "view",
					"type": "function"
				}
			],
			"devdoc": {
				"methods": {}
			},
			"evm": {
				"assembly": "    /* \"lesson-3/FundMe.sol\":1623:3465  contract FundMe {\r... */\n  mstore(0x40, 0x80)\n  callvalue\n    /* \"--CODEGEN--\":5:14   */\n  dup1\n    /* \"--CODEGEN--\":2:4   */\n  iszero\n  tag_1\n  jumpi\n    /* \"--CODEGEN--\":27:28   */\n  0x00\n    /* \"--CODEGEN--\":24:25   */\n  dup1\n    /* \"--CODEGEN--\":17:29   */\n  revert\n    /* \"--CODEGEN--\":2:4   */\ntag_1:\n    /* \"lesson-3/FundMe.sol\":1623:3465  contract FundMe {\r... */\n  pop\n  dataSize(sub_0)\n  dup1\n  dataOffset(sub_0)\n  0x00\n  codecopy\n  0x00\n  return\nstop\n\nsub_0: assembly {\n        /* \"lesson-3/FundMe.sol\":1623:3465  contract FundMe {\r... */\n      mstore(0x40, 0x80)\n      jumpi(tag_1, lt(calldatasize, 0x04))\n      shr(0xe0, calldataload(0x00))\n      dup1\n      0x0d8e6e2c\n      eq\n      tag_2\n      jumpi\n      dup1\n      0x3e47d6f3\n      eq\n      tag_3\n      jumpi\n      dup1\n      0x6e5b6b28\n      eq\n      tag_4\n      jumpi\n      dup1\n      0x98d5fdca\n      eq\n      tag_5\n      jumpi\n      dup1\n      0xb60d4288\n      eq\n      tag_6\n      jumpi\n    tag_1:\n        /* \"--CODEGEN--\":12:13   */\n      0x00\n        /* \"--CODEGEN--\":9:10   */\n      dup1\n        /* \"--CODEGEN--\":2:14   */\n      revert\n        /* \"lesson-3/FundMe.sol\":2224:2581  function getVersion() public view returns (uint256){\r... */\n    tag_2:\n      callvalue\n        /* \"--CODEGEN--\":5:14   */\n      dup1\n        /* \"--CODEGEN--\":2:4   */\n      iszero\n      tag_7\n      jumpi\n        /* \"--CODEGEN--\":27:28   */\n      0x00\n        /* \"--CODEGEN--\":24:25   */\n      dup1\n        /* \"--CODEGEN--\":17:29   */\n      revert\n        /* \"--CODEGEN--\":2:4   */\n    tag_7:\n        /* \"lesson-3/FundMe.sol\":2224:2581  function getVersion() public view returns (uint256){\r... */\n      pop\n      tag_8\n      tag_9\n      jump\t// in\n    tag_8:\n      mload(0x40)\n      dup1\n      dup3\n      dup2\n      mstore\n      0x20\n      add\n      swap2\n      pop\n      pop\n      mload(0x40)\n      dup1\n      swap2\n      sub\n      swap1\n      return\n        /* \"lesson-3/FundMe.sol\":1699:1755  mapping(address => uint256) public addressToAmountFunded */\n    tag_3:\n      callvalue\n        /* \"--CODEGEN--\":5:14   */\n      dup1\n        /* \"--CODEGEN--\":2:4   */\n      iszero\n      tag_10\n      jumpi\n        /* \"--CODEGEN--\":27:28   */\n      0x00\n        /* \"--CODEGEN--\":24:25   */\n      dup1\n        /* \"--CODEGEN--\":17:29   */\n      revert\n        /* \"--CODEGEN--\":2:4   */\n    tag_10:\n        /* \"lesson-3/FundMe.sol\":1699:1755  mapping(address => uint256) public addressToAmountFunded */\n      pop\n      tag_11\n      0x04\n      dup1\n      calldatasize\n      sub\n        /* \"--CODEGEN--\":15:17   */\n      0x20\n        /* \"--CODEGEN--\":10:13   */\n      dup2\n        /* \"--CODEGEN--\":7:18   */\n      lt\n        /* \"--CODEGEN--\":4:6   */\n      iszero\n      tag_12\n      jumpi\n        /* \"--CODEGEN--\":31:32   */\n      0x00\n        /* \"--CODEGEN--\":28:29   */\n      dup1\n        /* \"--CODEGEN--\":21:33   */\n      revert\n        /* \"--CODEGEN--\":4:6   */\n    tag_12:\n        /* \"lesson-3/FundMe.sol\":1699:1755  mapping(address => uint256) public addressToAmountFunded */\n      dup2\n      add\n      swap1\n      dup1\n      dup1\n      calldataload\n      0xffffffffffffffffffffffffffffffffffffffff\n      and\n      swap1\n      0x20\n      add\n      swap1\n      swap3\n      swap2\n      swap1\n      pop\n      pop\n      pop\n      tag_13\n      jump\t// in\n    tag_11:\n      mload(0x40)\n      dup1\n      dup3\n      dup2\n      mstore\n      0x20\n      add\n      swap2\n      pop\n      pop\n      mload(0x40)\n      dup1\n      swap2\n      sub\n      swap1\n      return\n        /* \"lesson-3/FundMe.sol\":3240:3462  function getConversionRate (uint256 ethAmount) public view returns (uint256){\r... */\n    tag_4:\n      callvalue\n        /* \"--CODEGEN--\":5:14   */\n      dup1\n        /* \"--CODEGEN--\":2:4   */\n      iszero\n      tag_14\n      jumpi\n        /* \"--CODEGEN--\":27:28   */\n      0x00\n        /* \"--CODEGEN--\":24:25   */\n      dup1\n        /* \"--CODEGEN--\":17:29   */\n      revert\n        /* \"--CODEGEN--\":2:4   */\n    tag_14:\n        /* \"lesson-3/FundMe.sol\":3240:3462  function getConversionRate (uint256 ethAmount) public view returns (uint256){\r... */\n      pop\n      tag_15\n      0x04\n      dup1\n      calldatasize\n      sub\n        /* \"--CODEGEN--\":15:17   */\n      0x20\n        /* \"--CODEGEN--\":10:13   */\n      dup2\n        /* \"--CODEGEN--\":7:18   */\n      lt\n        /* \"--CODEGEN--\":4:6   */\n      iszero\n      tag_16\n      jumpi\n        /* \"--CODEGEN--\":31:32   */\n      0x00\n        /* \"--CODEGEN--\":28:29   */\n      dup1\n        /* \"--CODEGEN--\":21:33   */\n      revert\n        /* \"--CODEGEN--\":4:6   */\n    tag_16:\n        /* \"lesson-3/FundMe.sol\":3240:3462  function getConversionRate (uint256 ethAmount) public view returns (uint256){\r... */\n      dup2\n      add\n      swap1\n      dup1\n      dup1\n      calldataload\n      swap1\n      0x20\n      add\n      swap1\n      swap3\n      swap2\n      swap1\n      pop\n      pop\n      pop\n      tag_17\n      jump\t// in\n    tag_15:\n      mload(0x40)\n      dup1\n      dup3\n      dup2\n      mstore\n      0x20\n      add\n      swap2\n      pop\n      pop\n      mload(0x40)\n      dup1\n      swap2\n      sub\n      swap1\n      return\n        /* \"lesson-3/FundMe.sol\":2654:3145  function getPrice() public view returns (uint256){\r... */\n    tag_5:\n      callvalue\n        /* \"--CODEGEN--\":5:14   */\n      dup1\n        /* \"--CODEGEN--\":2:4   */\n      iszero\n      tag_18\n      jumpi\n        /* \"--CODEGEN--\":27:28   */\n      0x00\n        /* \"--CODEGEN--\":24:25   */\n      dup1\n        /* \"--CODEGEN--\":17:29   */\n      revert\n        /* \"--CODEGEN--\":2:4   */\n    tag_18:\n        /* \"lesson-3/FundMe.sol\":2654:3145  function getPrice() public view returns (uint256){\r... */\n      pop\n      tag_19\n      tag_20\n      jump\t// in\n    tag_19:\n      mload(0x40)\n      dup1\n      dup3\n      dup2\n      mstore\n      0x20\n      add\n      swap2\n      pop\n      pop\n      mload(0x40)\n      dup1\n      swap2\n      sub\n      swap1\n      return\n        /* \"lesson-3/FundMe.sol\":1762:2218  function fund() public payable {\r... */\n    tag_6:\n      tag_21\n      tag_22\n      jump\t// in\n    tag_21:\n      stop\n        /* \"lesson-3/FundMe.sol\":2224:2581  function getVersion() public view returns (uint256){\r... */\n    tag_9:\n        /* \"lesson-3/FundMe.sol\":2267:2274  uint256 */\n      0x00\n        /* \"lesson-3/FundMe.sol\":2443:2474  AggregatorV3Interface priceFeed */\n      dup1\n        /* \"lesson-3/FundMe.sol\":2499:2541  0x8A753747A1Fa494EC906cE90E9f37563A8AF630e */\n      0x8a753747a1fa494ec906ce90e9f37563a8af630e\n        /* \"lesson-3/FundMe.sol\":2443:2542  AggregatorV3Interface priceFeed = AggregatorV3Interface(0x8A753747A1Fa494EC906cE90E9f37563A8AF630e) */\n      swap1\n      pop\n        /* \"lesson-3/FundMe.sol\":2556:2565  priceFeed */\n      dup1\n        /* \"lesson-3/FundMe.sol\":2556:2573  priceFeed.version */\n      0xffffffffffffffffffffffffffffffffffffffff\n      and\n      0x54fd4d50\n        /* \"lesson-3/FundMe.sol\":2556:2575  priceFeed.version() */\n      mload(0x40)\n      dup2\n      0xffffffff\n      and\n      0xe0\n      shl\n      dup2\n      mstore\n      0x04\n      add\n      0x20\n      mload(0x40)\n      dup1\n      dup4\n      sub\n      dup2\n      dup7\n      dup1\n      extcodesize\n      iszero\n        /* \"--CODEGEN--\":5:14   */\n      dup1\n        /* \"--CODEGEN--\":2:4   */\n      iszero\n      tag_24\n      jumpi\n        /* \"--CODEGEN--\":27:28   */\n      0x00\n        /* \"--CODEGEN--\":24:25   */\n      dup1\n        /* \"--CODEGEN--\":17:29   */\n      revert\n        /* \"--CODEGEN--\":2:4   */\n    tag_24:\n        /* \"lesson-3/FundMe.sol\":2556:2575  priceFeed.version() */\n      pop\n      gas\n      staticcall\n      iszero\n        /* \"--CODEGEN--\":8:17   */\n      dup1\n        /* \"--CODEGEN--\":5:7   */\n      iszero\n      tag_26\n      jumpi\n        /* \"--CODEGEN--\":45:61   */\n      returndatasize\n        /* \"--CODEGEN--\":42:43   */\n      0x00\n        /* \"--CODEGEN--\":39:40   */\n      dup1\n        /* \"--CODEGEN--\":24:62   */\n      returndatacopy\n        /* \"--CODEGEN--\":77:93   */\n      returndatasize\n        /* \"--CODEGEN--\":74:75   */\n      0x00\n        /* \"--CODEGEN--\":67:94   */\n      revert\n        /* \"--CODEGEN--\":5:7   */\n    tag_26:\n        /* \"lesson-3/FundMe.sol\":2556:2575  priceFeed.version() */\n      pop\n      pop\n      pop\n      pop\n      mload(0x40)\n      returndatasize\n        /* \"--CODEGEN--\":15:17   */\n      0x20\n        /* \"--CODEGEN--\":10:13   */\n      dup2\n        /* \"--CODEGEN--\":7:18   */\n      lt\n        /* \"--CODEGEN--\":4:6   */\n      iszero\n      tag_27\n      jumpi\n        /* \"--CODEGEN--\":31:32   */\n      0x00\n        /* \"--CODEGEN--\":28:29   */\n      dup1\n        /* \"--CODEGEN--\":21:33   */\n      revert\n        /* \"--CODEGEN--\":4:6   */\n    tag_27:\n        /* \"lesson-3/FundMe.sol\":2556:2575  priceFeed.version() */\n      dup2\n      add\n      swap1\n      dup1\n      dup1\n      mload\n      swap1\n      0x20\n      add\n      swap1\n      swap3\n      swap2\n      swap1\n      pop\n      pop\n      pop\n        /* \"lesson-3/FundMe.sol\":2549:2575  return priceFeed.version() */\n      swap2\n      pop\n      pop\n        /* \"lesson-3/FundMe.sol\":2224:2581  function getVersion() public view returns (uint256){\r... */\n      swap1\n      jump\t// out\n        /* \"lesson-3/FundMe.sol\":1699:1755  mapping(address => uint256) public addressToAmountFunded */\n    tag_13:\n      mstore(0x20, 0x00)\n      dup1\n      0x00\n      mstore\n      keccak256(0x00, 0x40)\n      0x00\n      swap2\n      pop\n      swap1\n      pop\n      sload\n      dup2\n      jump\t// out\n        /* \"lesson-3/FundMe.sol\":3240:3462  function getConversionRate (uint256 ethAmount) public view returns (uint256){\r... */\n    tag_17:\n        /* \"lesson-3/FundMe.sol\":3308:3315  uint256 */\n      0x00\n        /* \"lesson-3/FundMe.sol\":3323:3339  uint256 ethPrice */\n      dup1\n        /* \"lesson-3/FundMe.sol\":3342:3352  getPrice() */\n      tag_29\n        /* \"lesson-3/FundMe.sol\":3342:3350  getPrice */\n      tag_20\n        /* \"lesson-3/FundMe.sol\":3342:3352  getPrice() */\n      jump\t// in\n    tag_29:\n        /* \"lesson-3/FundMe.sol\":3323:3352  uint256 ethPrice = getPrice() */\n      swap1\n      pop\n        /* \"lesson-3/FundMe.sol\":3359:3381  uint256 ethAmountInUsd */\n      0x00\n        /* \"lesson-3/FundMe.sol\":3408:3427  1000000000000000000 */\n      0x0de0b6b3a7640000\n        /* \"lesson-3/FundMe.sol\":3396:3405  ethAmount */\n      dup5\n        /* \"lesson-3/FundMe.sol\":3385:3393  ethPrice */\n      dup4\n        /* \"lesson-3/FundMe.sol\":3385:3405  ethPrice * ethAmount */\n      mul\n        /* \"lesson-3/FundMe.sol\":3385:3427  ethPrice * ethAmount / 1000000000000000000 */\n      dup2\n      tag_30\n      jumpi\n      invalid\n    tag_30:\n      div\n        /* \"lesson-3/FundMe.sol\":3359:3428  uint256 ethAmountInUsd = (ethPrice * ethAmount / 1000000000000000000) */\n      swap1\n      pop\n        /* \"lesson-3/FundMe.sol\":3442:3456  ethAmountInUsd */\n      dup1\n        /* \"lesson-3/FundMe.sol\":3435:3456  return ethAmountInUsd */\n      swap3\n      pop\n      pop\n      pop\n        /* \"lesson-3/FundMe.sol\":3240:3462  function getConversionRate (uint256 ethAmount) public view returns (uint256){\r... */\n      swap2\n      swap1\n      pop\n      jump\t// out\n        /* \"lesson-3/FundMe.sol\":2654:3145  function getPrice() public view returns (uint256){\r... */\n    tag_20:\n        /* \"lesson-3/FundMe.sol\":2695:2702  uint256 */\n      0x00\n        /* \"lesson-3/FundMe.sol\":2710:2741  AggregatorV3Interface priceFeed */\n      dup1\n        /* \"lesson-3/FundMe.sol\":2766:2808  0x8A753747A1Fa494EC906cE90E9f37563A8AF630e */\n      0x8a753747a1fa494ec906ce90e9f37563a8af630e\n        /* \"lesson-3/FundMe.sol\":2710:2809  AggregatorV3Interface priceFeed = AggregatorV3Interface(0x8A753747A1Fa494EC906cE90E9f37563A8AF630e) */\n      swap1\n      pop\n        /* \"lesson-3/FundMe.sol\":2816:2830  uint8 decimals */\n      0x00\n        /* \"lesson-3/FundMe.sol\":2833:2842  priceFeed */\n      dup2\n        /* \"lesson-3/FundMe.sol\":2833:2851  priceFeed.decimals */\n      0xffffffffffffffffffffffffffffffffffffffff\n      and\n      0x313ce567\n        /* \"lesson-3/FundMe.sol\":2833:2853  priceFeed.decimals() */\n      mload(0x40)\n      dup2\n      0xffffffff\n      and\n      0xe0\n      shl\n      dup2\n      mstore\n      0x04\n      add\n      0x20\n      mload(0x40)\n      dup1\n      dup4\n      sub\n      dup2\n      dup7\n      dup1\n      extcodesize\n      iszero\n        /* \"--CODEGEN--\":5:14   */\n      dup1\n        /* \"--CODEGEN--\":2:4   */\n      iszero\n      tag_32\n      jumpi\n        /* \"--CODEGEN--\":27:28   */\n      0x00\n        /* \"--CODEGEN--\":24:25   */\n      dup1\n        /* \"--CODEGEN--\":17:29   */\n      revert\n        /* \"--CODEGEN--\":2:4   */\n    tag_32:\n        /* \"lesson-3/FundMe.sol\":2833:2853  priceFeed.decimals() */\n      pop\n      gas\n      staticcall\n      iszero\n        /* \"--CODEGEN--\":8:17   */\n      dup1\n        /* \"--CODEGEN--\":5:7   */\n      iszero\n      tag_34\n      jumpi\n        /* \"--CODEGEN--\":45:61   */\n      returndatasize\n        /* \"--CODEGEN--\":42:43   */\n      0x00\n        /* \"--CODEGEN--\":39:40   */\n      dup1\n        /* \"--CODEGEN--\":24:62   */\n      returndatacopy\n        /* \"--CODEGEN--\":77:93   */\n      returndatasize\n        /* \"--CODEGEN--\":74:75   */\n      0x00\n        /* \"--CODEGEN--\":67:94   */\n      revert\n        /* \"--CODEGEN--\":5:7   */\n    tag_34:\n        /* \"lesson-3/FundMe.sol\":2833:2853  priceFeed.decimals() */\n      pop\n      pop\n      pop\n      pop\n      mload(0x40)\n      returndatasize\n        /* \"--CODEGEN--\":15:17   */\n      0x20\n        /* \"--CODEGEN--\":10:13   */\n      dup2\n        /* \"--CODEGEN--\":7:18   */\n      lt\n        /* \"--CODEGEN--\":4:6   */\n      iszero\n      tag_35\n      jumpi\n        /* \"--CODEGEN--\":31:32   */\n      0x00\n        /* \"--CODEGEN--\":28:29   */\n      dup1\n        /* \"--CODEGEN--\":21:33   */\n      revert\n        /* \"--CODEGEN--\":4:6   */\n    tag_35:\n        /* \"lesson-3/FundMe.sol\":2833:2853  priceFeed.decimals() */\n      dup2\n      add\n      swap1\n      dup1\n      dup1\n      mload\n      swap1\n      0x20\n      add\n      swap1\n      swap3\n      swap2\n      swap1\n      pop\n      pop\n      pop\n        /* \"lesson-3/FundMe.sol\":2816:2853  uint8 decimals = priceFeed.decimals() */\n      swap1\n      pop\n        /* \"lesson-3/FundMe.sol\":2862:2875  int256 answer */\n      0x00\n        /* \"lesson-3/FundMe.sol\":2882:2891  priceFeed */\n      dup3\n        /* \"lesson-3/FundMe.sol\":2882:2907  priceFeed.latestRoundData */\n      0xffffffffffffffffffffffffffffffffffffffff\n      and\n      0xfeaf968c\n        /* \"lesson-3/FundMe.sol\":2882:2909  priceFeed.latestRoundData() */\n      mload(0x40)\n      dup2\n      0xffffffff\n      and\n      0xe0\n      shl\n      dup2\n      mstore\n      0x04\n      add\n      0xa0\n      mload(0x40)\n      dup1\n      dup4\n      sub\n      dup2\n      dup7\n      dup1\n      extcodesize\n      iszero\n        /* \"--CODEGEN--\":5:14   */\n      dup1\n        /* \"--CODEGEN--\":2:4   */\n      iszero\n      tag_36\n      jumpi\n        /* \"--CODEGEN--\":27:28   */\n      0x00\n        /* \"--CODEGEN--\":24:25   */\n      dup1\n        /* \"--CODEGEN--\":17:29   */\n      revert\n        /* \"--CODEGEN--\":2:4   */\n    tag_36:\n        /* \"lesson-3/FundMe.sol\":2882:2909  priceFeed.latestRoundData() */\n      pop\n      gas\n      staticcall\n      iszero\n        /* \"--CODEGEN--\":8:17   */\n      dup1\n        /* \"--CODEGEN--\":5:7   */\n      iszero\n      tag_38\n      jumpi\n        /* \"--CODEGEN--\":45:61   */\n      returndatasize\n        /* \"--CODEGEN--\":42:43   */\n      0x00\n        /* \"--CODEGEN--\":39:40   */\n      dup1\n        /* \"--CODEGEN--\":24:62   */\n      returndatacopy\n        /* \"--CODEGEN--\":77:93   */\n      returndatasize\n        /* \"--CODEGEN--\":74:75   */\n      0x00\n        /* \"--CODEGEN--\":67:94   */\n      revert\n        /* \"--CODEGEN--\":5:7   */\n    tag_38:\n        /* \"lesson-3/FundMe.sol\":2882:2909  priceFeed.latestRoundData() */\n      pop\n      pop\n      pop\n      pop\n      mload(0x40)\n      returndatasize\n        /* \"--CODEGEN--\":15:18   */\n      0xa0\n        /* \"--CODEGEN--\":10:13   */\n      dup2\n        /* \"--CODEGEN--\":7:19   */\n      lt\n        /* \"--CODEGEN--\":4:6   */\n      iszero\n      tag_39\n      jumpi\n        /* \"--CODEGEN--\":32:33   */\n      0x00\n        /* \"--CODEGEN--\":29:30   */\n      dup1\n        /* \"--CODEGEN--\":22:34   */\n      revert\n        /* \"--CODEGEN--\":4:6   */\n    tag_39:\n        /* \"lesson-3/FundMe.sol\":2882:2909  priceFeed.latestRoundData() */\n      dup2\n      add\n      swap1\n      dup1\n      dup1\n      mload\n      swap1\n      0x20\n      add\n      swap1\n      swap3\n      swap2\n      swap1\n      dup1\n      mload\n      swap1\n      0x20\n      add\n      swap1\n      swap3\n      swap2\n      swap1\n      dup1\n      mload\n      swap1\n      0x20\n      add\n      swap1\n      swap3\n      swap2\n      swap1\n      dup1\n      mload\n      swap1\n      0x20\n      add\n      swap1\n      swap3\n      swap2\n      swap1\n      dup1\n      mload\n      swap1\n      0x20\n      add\n      swap1\n      swap3\n      swap2\n      swap1\n      pop\n      pop\n      pop\n        /* \"lesson-3/FundMe.sol\":2860:2909  (,int256 answer,,,) = priceFeed.latestRoundData() */\n      pop\n      pop\n      pop\n      swap2\n      pop\n      pop\n        /* \"lesson-3/FundMe.sol\":2940:2951  10000000000 */\n      0x02540be400\n        /* \"lesson-3/FundMe.sol\":2931:2937  answer */\n      dup2\n        /* \"lesson-3/FundMe.sol\":2931:2951  answer * 10000000000 */\n      mul\n        /* \"lesson-3/FundMe.sol\":2916:2952  return uint256(answer * 10000000000) */\n      swap4\n      pop\n      pop\n      pop\n      pop\n        /* \"lesson-3/FundMe.sol\":2654:3145  function getPrice() public view returns (uint256){\r... */\n      swap1\n      jump\t// out\n        /* \"lesson-3/FundMe.sol\":1762:2218  function fund() public payable {\r... */\n    tag_22:\n        /* \"lesson-3/FundMe.sol\":2112:2121  msg.value */\n      callvalue\n        /* \"lesson-3/FundMe.sol\":2075:2096  addressToAmountFunded */\n      0x00\n        /* \"lesson-3/FundMe.sol\":2075:2108  addressToAmountFunded[msg.sender] */\n      dup1\n        /* \"lesson-3/FundMe.sol\":2097:2107  msg.sender */\n      caller\n        /* \"lesson-3/FundMe.sol\":2075:2108  addressToAmountFunded[msg.sender] */\n      0xffffffffffffffffffffffffffffffffffffffff\n      and\n      0xffffffffffffffffffffffffffffffffffffffff\n      and\n      dup2\n      mstore\n      0x20\n      add\n      swap1\n      dup2\n      mstore\n      0x20\n      add\n      0x00\n      keccak256\n      0x00\n        /* \"lesson-3/FundMe.sol\":2075:2121  addressToAmountFunded[msg.sender] += msg.value */\n      dup3\n      dup3\n      sload\n      add\n      swap3\n      pop\n      pop\n      dup2\n      swap1\n      sstore\n      pop\n        /* \"lesson-3/FundMe.sol\":1762:2218  function fund() public payable {\r... */\n      jump\t// out\n\n    auxdata: 0xa2646970667358221220a8fcd42bd89cd79e7ef8eed43c7ebb97b78a9e693b77b13350f3898e45ff4a4764736f6c63430006060033\n}\n",
				"bytecode": {
					"linkReferences": {},
					"object": "608060405234801561001057600080fd5b5061042f806100206000396000f3fe60806040526004361061004a5760003560e01c80630d8e6e2c1461004f5780633e47d6f31461007a5780636e5b6b28146100df57806398d5fdca1461012e578063b60d428814610159575b600080fd5b34801561005b57600080fd5b50610064610163565b6040518082815260200191505060405180910390f35b34801561008657600080fd5b506100c96004803603602081101561009d57600080fd5b81019080803573ffffffffffffffffffffffffffffffffffffffff169060200190929190505050610204565b6040518082815260200191505060405180910390f35b3480156100eb57600080fd5b506101186004803603602081101561010257600080fd5b810190808035906020019092919050505061021c565b6040518082815260200191505060405180910390f35b34801561013a57600080fd5b5061014361024b565b6040518082815260200191505060405180910390f35b6101616103ab565b005b600080738a753747a1fa494ec906ce90e9f37563a8af630e90508073ffffffffffffffffffffffffffffffffffffffff166354fd4d506040518163ffffffff1660e01b815260040160206040518083038186803b1580156101c357600080fd5b505afa1580156101d7573d6000803e3d6000fd5b505050506040513d60208110156101ed57600080fd5b810190808051906020019092919050505091505090565b60006020528060005260406000206000915090505481565b60008061022761024b565b90506000670de0b6b3a76400008483028161023e57fe5b0490508092505050919050565b600080738a753747a1fa494ec906ce90e9f37563a8af630e905060008173ffffffffffffffffffffffffffffffffffffffff1663313ce5676040518163ffffffff1660e01b815260040160206040518083038186803b1580156102ad57600080fd5b505afa1580156102c1573d6000803e3d6000fd5b505050506040513d60208110156102d757600080fd5b8101908080519060200190929190505050905060008273ffffffffffffffffffffffffffffffffffffffff1663feaf968c6040518163ffffffff1660e01b815260040160a06040518083038186803b15801561033257600080fd5b505afa158015610346573d6000803e3d6000fd5b505050506040513d60a081101561035c57600080fd5b8101908080519060200190929190805190602001909291908051906020019092919080519060200190929190805190602001909291905050505050509150506402540be4008102935050505090565b346000803373ffffffffffffffffffffffffffffffffffffffff1673ffffffffffffffffffffffffffffffffffffffff1681526020019081526020016000206000828254019250508190555056fea2646970667358221220a8fcd42bd89cd79e7ef8eed43c7ebb97b78a9e693b77b13350f3898e45ff4a4764736f6c63430006060033",
					"opcodes": "PUSH1 0x80 PUSH1 0x40 MSTORE CALLVALUE DUP1 ISZERO PUSH2 0x10 JUMPI PUSH1 0x0 DUP1 REVERT JUMPDEST POP PUSH2 0x42F DUP1 PUSH2 0x20 PUSH1 0x0 CODECOPY PUSH1 0x0 RETURN INVALID PUSH1 0x80 PUSH1 0x40 MSTORE PUSH1 0x4 CALLDATASIZE LT PUSH2 0x4A JUMPI PUSH1 0x0 CALLDATALOAD PUSH1 0xE0 SHR DUP1 PUSH4 0xD8E6E2C EQ PUSH2 0x4F JUMPI DUP1 PUSH4 0x3E47D6F3 EQ PUSH2 0x7A JUMPI DUP1 PUSH4 0x6E5B6B28 EQ PUSH2 0xDF JUMPI DUP1 PUSH4 0x98D5FDCA EQ PUSH2 0x12E JUMPI DUP1 PUSH4 0xB60D4288 EQ PUSH2 0x159 JUMPI JUMPDEST PUSH1 0x0 DUP1 REVERT JUMPDEST CALLVALUE DUP1 ISZERO PUSH2 0x5B JUMPI PUSH1 0x0 DUP1 REVERT JUMPDEST POP PUSH2 0x64 PUSH2 0x163 JUMP JUMPDEST PUSH1 0x40 MLOAD DUP1 DUP3 DUP2 MSTORE PUSH1 0x20 ADD SWAP2 POP POP PUSH1 0x40 MLOAD DUP1 SWAP2 SUB SWAP1 RETURN JUMPDEST CALLVALUE DUP1 ISZERO PUSH2 0x86 JUMPI PUSH1 0x0 DUP1 REVERT JUMPDEST POP PUSH2 0xC9 PUSH1 0x4 DUP1 CALLDATASIZE SUB PUSH1 0x20 DUP2 LT ISZERO PUSH2 0x9D JUMPI PUSH1 0x0 DUP1 REVERT JUMPDEST DUP2 ADD SWAP1 DUP1 DUP1 CALLDATALOAD PUSH20 0xFFFFFFFFFFFFFFFFFFFFFFFFFFFFFFFFFFFFFFFF AND SWAP1 PUSH1 0x20 ADD SWAP1 SWAP3 SWAP2 SWAP1 POP POP POP PUSH2 0x204 JUMP JUMPDEST PUSH1 0x40 MLOAD DUP1 DUP3 DUP2 MSTORE PUSH1 0x20 ADD SWAP2 POP POP PUSH1 0x40 MLOAD DUP1 SWAP2 SUB SWAP1 RETURN JUMPDEST CALLVALUE DUP1 ISZERO PUSH2 0xEB JUMPI PUSH1 0x0 DUP1 REVERT JUMPDEST POP PUSH2 0x118 PUSH1 0x4 DUP1 CALLDATASIZE SUB PUSH1 0x20 DUP2 LT ISZERO PUSH2 0x102 JUMPI PUSH1 0x0 DUP1 REVERT JUMPDEST DUP2 ADD SWAP1 DUP1 DUP1 CALLDATALOAD SWAP1 PUSH1 0x20 ADD SWAP1 SWAP3 SWAP2 SWAP1 POP POP POP PUSH2 0x21C JUMP JUMPDEST PUSH1 0x40 MLOAD DUP1 DUP3 DUP2 MSTORE PUSH1 0x20 ADD SWAP2 POP POP PUSH1 0x40 MLOAD DUP1 SWAP2 SUB SWAP1 RETURN JUMPDEST CALLVALUE DUP1 ISZERO PUSH2 0x13A JUMPI PUSH1 0x0 DUP1 REVERT JUMPDEST POP PUSH2 0x143 PUSH2 0x24B JUMP JUMPDEST PUSH1 0x40 MLOAD DUP1 DUP3 DUP2 MSTORE PUSH1 0x20 ADD SWAP2 POP POP PUSH1 0x40 MLOAD DUP1 SWAP2 SUB SWAP1 RETURN JUMPDEST PUSH2 0x161 PUSH2 0x3AB JUMP JUMPDEST STOP JUMPDEST PUSH1 0x0 DUP1 PUSH20 0x8A753747A1FA494EC906CE90E9F37563A8AF630E SWAP1 POP DUP1 PUSH20 0xFFFFFFFFFFFFFFFFFFFFFFFFFFFFFFFFFFFFFFFF AND PUSH4 0x54FD4D50 PUSH1 0x40 MLOAD DUP2 PUSH4 0xFFFFFFFF AND PUSH1 0xE0 SHL DUP2 MSTORE PUSH1 0x4 ADD PUSH1 0x20 PUSH1 0x40 MLOAD DUP1 DUP4 SUB DUP2 DUP7 DUP1 EXTCODESIZE ISZERO DUP1 ISZERO PUSH2 0x1C3 JUMPI PUSH1 0x0 DUP1 REVERT JUMPDEST POP GAS STATICCALL ISZERO DUP1 ISZERO PUSH2 0x1D7 JUMPI RETURNDATASIZE PUSH1 0x0 DUP1 RETURNDATACOPY RETURNDATASIZE PUSH1 0x0 REVERT JUMPDEST POP POP POP POP PUSH1 0x40 MLOAD RETURNDATASIZE PUSH1 0x20 DUP2 LT ISZERO PUSH2 0x1ED JUMPI PUSH1 0x0 DUP1 REVERT JUMPDEST DUP2 ADD SWAP1 DUP1 DUP1 MLOAD SWAP1 PUSH1 0x20 ADD SWAP1 SWAP3 SWAP2 SWAP1 POP POP POP SWAP2 POP POP SWAP1 JUMP JUMPDEST PUSH1 0x0 PUSH1 0x20 MSTORE DUP1 PUSH1 0x0 MSTORE PUSH1 0x40 PUSH1 0x0 KECCAK256 PUSH1 0x0 SWAP2 POP SWAP1 POP SLOAD DUP2 JUMP JUMPDEST PUSH1 0x0 DUP1 PUSH2 0x227 PUSH2 0x24B JUMP JUMPDEST SWAP1 POP PUSH1 0x0 PUSH8 0xDE0B6B3A7640000 DUP5 DUP4 MUL DUP2 PUSH2 0x23E JUMPI INVALID JUMPDEST DIV SWAP1 POP DUP1 SWAP3 POP POP POP SWAP2 SWAP1 POP JUMP JUMPDEST PUSH1 0x0 DUP1 PUSH20 0x8A753747A1FA494EC906CE90E9F37563A8AF630E SWAP1 POP PUSH1 0x0 DUP2 PUSH20 0xFFFFFFFFFFFFFFFFFFFFFFFFFFFFFFFFFFFFFFFF AND PUSH4 0x313CE567 PUSH1 0x40 MLOAD DUP2 PUSH4 0xFFFFFFFF AND PUSH1 0xE0 SHL DUP2 MSTORE PUSH1 0x4 ADD PUSH1 0x20 PUSH1 0x40 MLOAD DUP1 DUP4 SUB DUP2 DUP7 DUP1 EXTCODESIZE ISZERO DUP1 ISZERO PUSH2 0x2AD JUMPI PUSH1 0x0 DUP1 REVERT JUMPDEST POP GAS STATICCALL ISZERO DUP1 ISZERO PUSH2 0x2C1 JUMPI RETURNDATASIZE PUSH1 0x0 DUP1 RETURNDATACOPY RETURNDATASIZE PUSH1 0x0 REVERT JUMPDEST POP POP POP POP PUSH1 0x40 MLOAD RETURNDATASIZE PUSH1 0x20 DUP2 LT ISZERO PUSH2 0x2D7 JUMPI PUSH1 0x0 DUP1 REVERT JUMPDEST DUP2 ADD SWAP1 DUP1 DUP1 MLOAD SWAP1 PUSH1 0x20 ADD SWAP1 SWAP3 SWAP2 SWAP1 POP POP POP SWAP1 POP PUSH1 0x0 DUP3 PUSH20 0xFFFFFFFFFFFFFFFFFFFFFFFFFFFFFFFFFFFFFFFF AND PUSH4 0xFEAF968C PUSH1 0x40 MLOAD DUP2 PUSH4 0xFFFFFFFF AND PUSH1 0xE0 SHL DUP2 MSTORE PUSH1 0x4 ADD PUSH1 0xA0 PUSH1 0x40 MLOAD DUP1 DUP4 SUB DUP2 DUP7 DUP1 EXTCODESIZE ISZERO DUP1 ISZERO PUSH2 0x332 JUMPI PUSH1 0x0 DUP1 REVERT JUMPDEST POP GAS STATICCALL ISZERO DUP1 ISZERO PUSH2 0x346 JUMPI RETURNDATASIZE PUSH1 0x0 DUP1 RETURNDATACOPY RETURNDATASIZE PUSH1 0x0 REVERT JUMPDEST POP POP POP POP PUSH1 0x40 MLOAD RETURNDATASIZE PUSH1 0xA0 DUP2 LT ISZERO PUSH2 0x35C JUMPI PUSH1 0x0 DUP1 REVERT JUMPDEST DUP2 ADD SWAP1 DUP1 DUP1 MLOAD SWAP1 PUSH1 0x20 ADD SWAP1 SWAP3 SWAP2 SWAP1 DUP1 MLOAD SWAP1 PUSH1 0x20 ADD SWAP1 SWAP3 SWAP2 SWAP1 DUP1 MLOAD SWAP1 PUSH1 0x20 ADD SWAP1 SWAP3 SWAP2 SWAP1 DUP1 MLOAD SWAP1 PUSH1 0x20 ADD SWAP1 SWAP3 SWAP2 SWAP1 DUP1 MLOAD SWAP1 PUSH1 0x20 ADD SWAP1 SWAP3 SWAP2 SWAP1 POP POP POP POP POP POP SWAP2 POP POP PUSH5 0x2540BE400 DUP2 MUL SWAP4 POP POP POP POP SWAP1 JUMP JUMPDEST CALLVALUE PUSH1 0x0 DUP1 CALLER PUSH20 0xFFFFFFFFFFFFFFFFFFFFFFFFFFFFFFFFFFFFFFFF AND PUSH20 0xFFFFFFFFFFFFFFFFFFFFFFFFFFFFFFFFFFFFFFFF AND DUP2 MSTORE PUSH1 0x20 ADD SWAP1 DUP2 MSTORE PUSH1 0x20 ADD PUSH1 0x0 KECCAK256 PUSH1 0x0 DUP3 DUP3 SLOAD ADD SWAP3 POP POP DUP2 SWAP1 SSTORE POP JUMP INVALID LOG2 PUSH5 0x6970667358 0x22 SLT KECCAK256 0xA8 0xFC 0xD4 0x2B 0xD8 SWAP13 0xD7 SWAP15 PUSH31 0xF8EED43C7EBB97B78A9E693B77B13350F3898E45FF4A4764736F6C63430006 MOD STOP CALLER "
				},
				"gasEstimates": {
					"creation": {
						"codeDepositCost": "214200",
						"executionCost": "257",
						"totalCost": "214457"
					},
					"external": {
						"addressToAmountFunded(address)": "1169",
						"fund()": "21107",
						"getConversionRate(uint256)": "infinite",
						"getPrice()": "infinite",
						"getVersion()": "infinite"
					}
				},
				"methodIdentifiers": {
					"addressToAmountFunded(address)": "3e47d6f3",
					"fund()": "b60d4288",
					"getConversionRate(uint256)": "6e5b6b28",
					"getPrice()": "98d5fdca",
					"getVersion()": "0d8e6e2c"
				}
			},
			"userdoc": {
				"methods": {}
			}
		}
	}
}